{
  "contractName": "DIDregister",
  "abi": [
    {
      "inputs": [
        {
          "internalType": "address",
          "name": "_insuranceContract",
          "type": "address"
        }
      ],
      "stateMutability": "nonpayable",
      "type": "constructor"
    },
    {
      "anonymous": false,
      "inputs": [
        {
          "indexed": true,
          "internalType": "address",
          "name": "user",
          "type": "address"
        },
        {
          "indexed": false,
          "internalType": "string",
          "name": "did",
          "type": "string"
        },
        {
          "indexed": false,
          "internalType": "uint256",
          "name": "policyId",
          "type": "uint256"
        }
      ],
      "name": "DIDCreated",
      "type": "event"
    },
    {
      "anonymous": false,
      "inputs": [
        {
          "indexed": true,
          "internalType": "address",
          "name": "user",
          "type": "address"
        },
        {
          "indexed": false,
          "internalType": "string",
          "name": "did",
          "type": "string"
        }
      ],
      "name": "DIDDeactivated",
      "type": "event"
    },
    {
      "anonymous": false,
      "inputs": [
        {
          "indexed": true,
          "internalType": "address",
          "name": "newInsuranceContract",
          "type": "address"
        }
      ],
      "name": "InsuranceContractUpdated",
      "type": "event"
    },
    {
      "inputs": [],
      "name": "admin",
      "outputs": [
        {
          "internalType": "address",
          "name": "",
          "type": "address"
        }
      ],
      "stateMutability": "view",
      "type": "function",
      "constant": true
    },
    {
      "inputs": [],
      "name": "insuranceContract",
      "outputs": [
        {
          "internalType": "address",
          "name": "",
          "type": "address"
        }
      ],
      "stateMutability": "view",
      "type": "function",
      "constant": true
    },
    {
      "inputs": [
        {
          "internalType": "address",
          "name": "_policyholder",
          "type": "address"
        },
        {
          "internalType": "string",
          "name": "_did",
          "type": "string"
        },
        {
          "internalType": "uint256",
          "name": "_policyId",
          "type": "uint256"
        }
      ],
      "name": "registerDID",
      "outputs": [],
      "stateMutability": "nonpayable",
      "type": "function"
    },
    {
      "inputs": [
        {
          "internalType": "string",
          "name": "_did",
          "type": "string"
        }
      ],
      "name": "verifyDID",
      "outputs": [
        {
          "internalType": "bool",
          "name": "",
          "type": "bool"
        }
      ],
      "stateMutability": "view",
      "type": "function",
      "constant": true
    },
    {
      "inputs": [
        {
          "internalType": "address",
          "name": "_holder",
          "type": "address"
        }
      ],
      "name": "getDIDDetails",
      "outputs": [
        {
          "internalType": "string",
          "name": "did",
          "type": "string"
        },
        {
          "internalType": "bool",
          "name": "isActive",
          "type": "bool"
        },
        {
          "internalType": "uint256",
          "name": "policyId",
          "type": "uint256"
        }
      ],
      "stateMutability": "view",
      "type": "function",
      "constant": true
    },
    {
      "inputs": [
        {
          "internalType": "address",
          "name": "_holder",
          "type": "address"
        }
      ],
      "name": "deactivateDID",
      "outputs": [],
      "stateMutability": "nonpayable",
      "type": "function"
    },
    {
      "inputs": [
        {
          "internalType": "address",
          "name": "_insuranceContract",
          "type": "address"
        }
      ],
      "name": "setInsuranceContract",
      "outputs": [],
      "stateMutability": "nonpayable",
      "type": "function"
    }
  ],
  "bytecode": "0x608060405234801561001057600080fd5b50604051610d10380380610d1083398101604081905261002f916100b7565b6001600160a01b0381166100895760405162461bcd60e51b815260206004820152601a60248201527f496e76616c696420696e737572616e636520636f6e7472616374000000000000604482015260640160405180910390fd5b600280546001600160a01b039092166001600160a01b031992831617905560038054909116331790556100e7565b6000602082840312156100c957600080fd5b81516001600160a01b03811681146100e057600080fd5b9392505050565b610c1a806100f66000396000f3fe608060405234801561001057600080fd5b506004361061007d5760003560e01c8063d012a5a81161005b578063d012a5a8146100d5578063df31460114610100578063f851a44014610113578063fd8a00561461012657600080fd5b806352c764a514610082578063759e9a69146100ad578063c0fded3d146100c2575b600080fd5b61009561009036600461087c565b610149565b6040516100a4939291906108ee565b60405180910390f35b6100c06100bb3660046109b6565b61029c565b005b6100c06100d036600461087c565b610507565b6002546100e8906001600160a01b031681565b6040516001600160a01b0390911681526020016100a4565b6100c061010e36600461087c565b6106b7565b6003546100e8906001600160a01b031681565b610139610134366004610a0d565b610800565b60405190151581526020016100a4565b6001600160a01b03811660009081526020819052604081206001015460609190819060ff166101b55760405162461bcd60e51b8152602060048201526013602482015272139bc81858dd1a5d994811125108199bdd5b99606a1b60448201526064015b60405180910390fd5b6001600160a01b0384166000908152602081905260408082208151606081019092528054829082906101e690610a4a565b80601f016020809104026020016040519081016040528092919081815260200182805461021290610a4a565b801561025f5780601f106102345761010080835404028352916020019161025f565b820191906000526020600020905b81548152906001019060200180831161024257829003601f168201915b5050509183525050600182015460ff1615156020808301919091526002909201546040918201528251918301519201519097919650945092505050565b6002546001600160a01b031633146102f65760405162461bcd60e51b815260206004820181905260248201527f4f6e6c7920696e737572616e636520636f6e74726163742063616e2063616c6c60448201526064016101ac565b8160006001600160a01b03166001826040516103129190610a84565b908152604051908190036020019020546001600160a01b0316146103715760405162461bcd60e51b815260206004820152601660248201527511125108185b1c9958591e481c9959da5cdd195c995960521b60448201526064016101ac565b60008351116103b85760405162461bcd60e51b81526020600482015260136024820152724449442063616e6e6f7420626520656d70747960681b60448201526064016101ac565b6001600160a01b03841660009081526020819052604090206001015460ff16156104195760405162461bcd60e51b815260206004820152601260248201527144494420616c72656164792065786973747360701b60448201526064016101ac565b6040805160608101825284815260016020808301919091528183018590526001600160a01b038716600090815290819052919091208151819061045c9082610aef565b5060208201518160010160006101000a81548160ff021916908315150217905550604082015181600201559050508360018460405161049b9190610a84565b90815260405190819003602001812080546001600160a01b039384166001600160a01b0319909116179055908516907f05df43fb03bcbacb9a4122938d2024b390ebfc39ce205b84fa2a9cecda077c60906104f99086908690610baf565b60405180910390a250505050565b6003546001600160a01b031633146105575760405162461bcd60e51b815260206004820152601360248201527213db9b1e4818591b5a5b8818d85b8818d85b1b606a1b60448201526064016101ac565b6001600160a01b03811660009081526020819052604090206001015460ff166105b35760405162461bcd60e51b815260206004820152600e60248201526d444944206e6f742061637469766560901b60448201526064016101ac565b6001600160a01b038116600090815260208190526040812080546105d690610a4a565b80601f016020809104026020016040519081016040528092919081815260200182805461060290610a4a565b801561064f5780601f106106245761010080835404028352916020019161064f565b820191906000526020600020905b81548152906001019060200180831161063257829003601f168201915b5050506001600160a01b03851660008181526020819052604090819020600101805460ff1916905551939450927f65d91642721b6dbffbe8982d5f2cea705fb4d54669bdc23f7924705870c3caac92506106ab91508490610bd1565b60405180910390a25050565b6003546001600160a01b031633146107075760405162461bcd60e51b815260206004820152601360248201527213db9b1e4818591b5a5b8818d85b8818d85b1b606a1b60448201526064016101ac565b6001600160a01b03811661075d5760405162461bcd60e51b815260206004820152601a60248201527f496e76616c696420696e737572616e636520636f6e747261637400000000000060448201526064016101ac565b6002546001600160a01b0316156107b65760405162461bcd60e51b815260206004820152601e60248201527f496e737572616e636520636f6e747261637420616c726561647920736574000060448201526064016101ac565b600280546001600160a01b0319166001600160a01b0383169081179091556040517fab3448b430952ede9b8fd87a21a420d1e899f3855992101a39e53138f1e411c790600090a250565b6000806001836040516108139190610a84565b908152604051908190036020019020546001600160a01b031690508061083c5750600092915050565b6001600160a01b031660009081526020819052604090206001015460ff1692915050565b80356001600160a01b038116811461087757600080fd5b919050565b60006020828403121561088e57600080fd5b61089782610860565b9392505050565b60005b838110156108b95781810151838201526020016108a1565b50506000910152565b600081518084526108da81602086016020860161089e565b601f01601f19169290920160200192915050565b60608152600061090160608301866108c2565b93151560208301525060400152919050565b634e487b7160e01b600052604160045260246000fd5b600082601f83011261093a57600080fd5b813567ffffffffffffffff8082111561095557610955610913565b604051601f8301601f19908116603f0116810190828211818310171561097d5761097d610913565b8160405283815286602085880101111561099657600080fd5b836020870160208301376000602085830101528094505050505092915050565b6000806000606084860312156109cb57600080fd5b6109d484610860565b9250602084013567ffffffffffffffff8111156109f057600080fd5b6109fc86828701610929565b925050604084013590509250925092565b600060208284031215610a1f57600080fd5b813567ffffffffffffffff811115610a3657600080fd5b610a4284828501610929565b949350505050565b600181811c90821680610a5e57607f821691505b602082108103610a7e57634e487b7160e01b600052602260045260246000fd5b50919050565b60008251610a9681846020870161089e565b9190910192915050565b601f821115610aea57600081815260208120601f850160051c81016020861015610ac75750805b601f850160051c820191505b81811015610ae657828155600101610ad3565b5050505b505050565b815167ffffffffffffffff811115610b0957610b09610913565b610b1d81610b178454610a4a565b84610aa0565b602080601f831160018114610b525760008415610b3a5750858301515b600019600386901b1c1916600185901b178555610ae6565b600085815260208120601f198616915b82811015610b8157888601518255948401946001909101908401610b62565b5085821015610b9f5787850151600019600388901b60f8161c191681555b5050505050600190811b01905550565b604081526000610bc260408301856108c2565b90508260208301529392505050565b60208152600061089760208301846108c256fea26469706673582212209e8eda2d765e1c8677c3e7ca0755c1a83cb5c08c87088f2f5c8598a854c0fab364736f6c63430008140033",
  "immutableReferences": {},
  "source": "// SPDX-License-Identifier: MIT\npragma solidity ^0.8.20;\n\ncontract DIDregister {\n    struct DID {\n        string did;\n        bool isActive;\n        uint256 policyId;\n    }\n\n    mapping(address => DID) private dids;\n    mapping(string => address) private didToAddress;\n    \n    address public insuranceContract;\n    address public admin;\n    \n    event DIDCreated(address indexed user, string did, uint256 policyId);\n    event DIDDeactivated(address indexed user, string did);\n    event InsuranceContractUpdated(address indexed newInsuranceContract);\n    \n    modifier onlyInsuranceContract() {\n        require(msg.sender == insuranceContract, \"Only insurance contract can call\");\n        _;\n    }\n    \n    modifier onlyAdmin() {\n        require(msg.sender == admin, \"Only admin can call\");\n        _;\n    }\n    \n    modifier onlyUniqueDID(string memory _did) {\n        require(didToAddress[_did] == address(0), \"DID already registered\");\n        _;\n    }\n    \n    constructor(address _insuranceContract) {\n        require(_insuranceContract != address(0), \"Invalid insurance contract\");\n        insuranceContract = _insuranceContract;\n        admin = msg.sender;\n    }\n\n    function registerDID(\n        address _policyholder, \n        string memory _did, \n        uint256 _policyId\n    ) external onlyInsuranceContract onlyUniqueDID(_did) {\n        require(bytes(_did).length > 0, \"DID cannot be empty\");\n        require(!dids[_policyholder].isActive, \"DID already exists\");\n\n        dids[_policyholder] = DID(_did, true, _policyId);\n        didToAddress[_did] = _policyholder;\n\n        emit DIDCreated(_policyholder, _did, _policyId);\n    }\n\n    function verifyDID(string memory _did) public view returns (bool) {\n        address holder = didToAddress[_did];\n        if (holder == address(0)) return false;\n        return dids[holder].isActive;\n    }\n\n    function getDIDDetails(address _holder) public view returns (\n        string memory did,\n        bool isActive,\n        uint256 policyId\n    ) {\n        require(dids[_holder].isActive, \"No active DID found\");\n        DID memory didInfo = dids[_holder];\n        return (didInfo.did, didInfo.isActive, didInfo.policyId);\n    }\n\n    function deactivateDID(address _holder) external onlyAdmin {\n        require(dids[_holder].isActive, \"DID not active\");\n        string memory did = dids[_holder].did;\n        dids[_holder].isActive = false;\n        emit DIDDeactivated(_holder, did);\n    }\n\n    // New function to update the insurance contract\n    function setInsuranceContract(address _insuranceContract) external onlyAdmin {\n        require(_insuranceContract != address(0), \"Invalid insurance contract\");\n        require(insuranceContract == address(0), \"Insurance contract already set\");\n        \n        insuranceContract = _insuranceContract;\n        emit InsuranceContractUpdated(_insuranceContract);\n    }\n}\n",
  "sourcePath": "/home/astr00/Downloads/Blockchain_secure_insurance-main/Insurance_Project/contracts/DIDregister.sol",
  "compiler": {
    "name": "solc",
    "version": "0.8.20+commit.a1b79de6.Emscripten.clang"
  },
  "schemaVersion": "3.4.16",
  "updatedAt": "2025-02-16T11:40:08.145Z",
  "networkType": "ethereum",
  "devdoc": {
    "kind": "dev",
    "methods": {},
    "version": 1
  },
  "userdoc": {
    "kind": "user",
    "methods": {},
    "version": 1
  }
}