{
  "contractName": "Insurance",
  "abi": [
    {
      "inputs": [
        {
          "internalType": "address",
          "name": "_didRegistryAddress",
          "type": "address"
        }
      ],
      "stateMutability": "nonpayable",
      "type": "constructor"
    },
    {
      "anonymous": false,
      "inputs": [
        {
          "indexed": true,
          "internalType": "uint256",
          "name": "policyId",
          "type": "uint256"
        },
        {
          "indexed": true,
          "internalType": "address",
          "name": "holder",
          "type": "address"
        },
        {
          "indexed": false,
          "internalType": "uint256",
          "name": "claimAmt",
          "type": "uint256"
        }
      ],
      "name": "ClaimAccepted",
      "type": "event"
    },
    {
      "anonymous": false,
      "inputs": [
        {
          "indexed": true,
          "internalType": "uint256",
          "name": "policyId",
          "type": "uint256"
        },
        {
          "indexed": true,
          "internalType": "address",
          "name": "holder",
          "type": "address"
        },
        {
          "indexed": false,
          "internalType": "uint256",
          "name": "claimAmt",
          "type": "uint256"
        }
      ],
      "name": "ClaimMade",
      "type": "event"
    },
    {
      "anonymous": false,
      "inputs": [
        {
          "indexed": true,
          "internalType": "uint256",
          "name": "policyId",
          "type": "uint256"
        },
        {
          "indexed": true,
          "internalType": "address",
          "name": "holder",
          "type": "address"
        }
      ],
      "name": "ClaimRejected",
      "type": "event"
    },
    {
      "anonymous": false,
      "inputs": [
        {
          "indexed": true,
          "internalType": "address",
          "name": "hospital",
          "type": "address"
        }
      ],
      "name": "HospitalAuthorized",
      "type": "event"
    },
    {
      "anonymous": false,
      "inputs": [
        {
          "indexed": true,
          "internalType": "address",
          "name": "hospital",
          "type": "address"
        }
      ],
      "name": "HospitalDeauthorized",
      "type": "event"
    },
    {
      "anonymous": false,
      "inputs": [
        {
          "indexed": true,
          "internalType": "address",
          "name": "holder",
          "type": "address"
        },
        {
          "indexed": true,
          "internalType": "uint256",
          "name": "policyId",
          "type": "uint256"
        },
        {
          "indexed": false,
          "internalType": "uint256",
          "name": "startDate",
          "type": "uint256"
        },
        {
          "indexed": false,
          "internalType": "uint256",
          "name": "endDate",
          "type": "uint256"
        }
      ],
      "name": "PolicyCreated",
      "type": "event"
    },
    {
      "anonymous": false,
      "inputs": [
        {
          "indexed": true,
          "internalType": "uint256",
          "name": "policyId",
          "type": "uint256"
        },
        {
          "indexed": true,
          "internalType": "address",
          "name": "hospital",
          "type": "address"
        },
        {
          "indexed": false,
          "internalType": "string",
          "name": "procedureName",
          "type": "string"
        }
      ],
      "name": "ProcedureRecorded",
      "type": "event"
    },
    {
      "inputs": [],
      "name": "admin",
      "outputs": [
        {
          "internalType": "address",
          "name": "",
          "type": "address"
        }
      ],
      "stateMutability": "view",
      "type": "function",
      "constant": true
    },
    {
      "inputs": [
        {
          "internalType": "address",
          "name": "",
          "type": "address"
        }
      ],
      "name": "authorizedHospitals",
      "outputs": [
        {
          "internalType": "bool",
          "name": "",
          "type": "bool"
        }
      ],
      "stateMutability": "view",
      "type": "function",
      "constant": true
    },
    {
      "inputs": [
        {
          "internalType": "address",
          "name": "",
          "type": "address"
        }
      ],
      "name": "claimHistory",
      "outputs": [
        {
          "internalType": "uint256",
          "name": "",
          "type": "uint256"
        }
      ],
      "stateMutability": "view",
      "type": "function",
      "constant": true
    },
    {
      "inputs": [],
      "name": "didRegistry",
      "outputs": [
        {
          "internalType": "contract DIDregister",
          "name": "",
          "type": "address"
        }
      ],
      "stateMutability": "view",
      "type": "function",
      "constant": true
    },
    {
      "inputs": [],
      "name": "insuranceCompany",
      "outputs": [
        {
          "internalType": "address",
          "name": "",
          "type": "address"
        }
      ],
      "stateMutability": "view",
      "type": "function",
      "constant": true
    },
    {
      "inputs": [
        {
          "internalType": "uint256",
          "name": "",
          "type": "uint256"
        }
      ],
      "name": "policies",
      "outputs": [
        {
          "internalType": "address",
          "name": "holder",
          "type": "address"
        },
        {
          "internalType": "uint256",
          "name": "amount",
          "type": "uint256"
        },
        {
          "internalType": "uint256",
          "name": "premium",
          "type": "uint256"
        },
        {
          "internalType": "uint256",
          "name": "startDate",
          "type": "uint256"
        },
        {
          "internalType": "uint256",
          "name": "endDate",
          "type": "uint256"
        },
        {
          "internalType": "enum Insurance.PolicyStatus",
          "name": "status",
          "type": "uint8"
        },
        {
          "internalType": "string",
          "name": "holderDID",
          "type": "string"
        }
      ],
      "stateMutability": "view",
      "type": "function",
      "constant": true
    },
    {
      "inputs": [
        {
          "internalType": "uint256",
          "name": "",
          "type": "uint256"
        },
        {
          "internalType": "uint256",
          "name": "",
          "type": "uint256"
        }
      ],
      "name": "policyProcedures",
      "outputs": [
        {
          "internalType": "string",
          "name": "name",
          "type": "string"
        },
        {
          "internalType": "uint256",
          "name": "timestamp",
          "type": "uint256"
        },
        {
          "internalType": "bool",
          "name": "verified",
          "type": "bool"
        },
        {
          "internalType": "address",
          "name": "hospital",
          "type": "address"
        }
      ],
      "stateMutability": "view",
      "type": "function",
      "constant": true
    },
    {
      "inputs": [
        {
          "internalType": "address",
          "name": "",
          "type": "address"
        },
        {
          "internalType": "uint256",
          "name": "",
          "type": "uint256"
        }
      ],
      "name": "userPolicies",
      "outputs": [
        {
          "internalType": "uint256",
          "name": "",
          "type": "uint256"
        }
      ],
      "stateMutability": "view",
      "type": "function",
      "constant": true
    },
    {
      "stateMutability": "payable",
      "type": "receive",
      "payable": true
    },
    {
      "inputs": [
        {
          "internalType": "address",
          "name": "_insuranceCompany",
          "type": "address"
        }
      ],
      "name": "setInsuranceCompany",
      "outputs": [],
      "stateMutability": "nonpayable",
      "type": "function"
    },
    {
      "inputs": [
        {
          "internalType": "address",
          "name": "_hospital",
          "type": "address"
        }
      ],
      "name": "authorizeHospital",
      "outputs": [],
      "stateMutability": "nonpayable",
      "type": "function"
    },
    {
      "inputs": [
        {
          "internalType": "address",
          "name": "_hospital",
          "type": "address"
        }
      ],
      "name": "deauthorizeHospital",
      "outputs": [],
      "stateMutability": "nonpayable",
      "type": "function"
    },
    {
      "inputs": [
        {
          "internalType": "string",
          "name": "_did",
          "type": "string"
        },
        {
          "internalType": "uint256",
          "name": "_amount",
          "type": "uint256"
        },
        {
          "internalType": "uint256",
          "name": "_premium",
          "type": "uint256"
        },
        {
          "internalType": "uint256",
          "name": "_endDate",
          "type": "uint256"
        }
      ],
      "name": "createPolicy",
      "outputs": [
        {
          "internalType": "uint256",
          "name": "",
          "type": "uint256"
        }
      ],
      "stateMutability": "nonpayable",
      "type": "function"
    },
    {
      "inputs": [
        {
          "internalType": "uint256",
          "name": "_policyId",
          "type": "uint256"
        },
        {
          "internalType": "uint256",
          "name": "_claimAmt",
          "type": "uint256"
        }
      ],
      "name": "makeClaim",
      "outputs": [],
      "stateMutability": "nonpayable",
      "type": "function"
    },
    {
      "inputs": [
        {
          "internalType": "uint256",
          "name": "_policyId",
          "type": "uint256"
        },
        {
          "internalType": "string",
          "name": "_name",
          "type": "string"
        }
      ],
      "name": "recordProcedure",
      "outputs": [],
      "stateMutability": "nonpayable",
      "type": "function"
    },
    {
      "inputs": [
        {
          "internalType": "uint256",
          "name": "_policyId",
          "type": "uint256"
        }
      ],
      "name": "acceptClaim",
      "outputs": [],
      "stateMutability": "nonpayable",
      "type": "function"
    },
    {
      "inputs": [
        {
          "internalType": "uint256",
          "name": "_policyId",
          "type": "uint256"
        }
      ],
      "name": "rejectClaim",
      "outputs": [],
      "stateMutability": "nonpayable",
      "type": "function"
    },
    {
      "inputs": [
        {
          "internalType": "uint256",
          "name": "_policyId",
          "type": "uint256"
        }
      ],
      "name": "getPolicyStatus",
      "outputs": [
        {
          "internalType": "enum Insurance.PolicyStatus",
          "name": "",
          "type": "uint8"
        }
      ],
      "stateMutability": "view",
      "type": "function",
      "constant": true
    },
    {
      "inputs": [
        {
          "internalType": "address",
          "name": "_user",
          "type": "address"
        }
      ],
      "name": "getUserPolicies",
      "outputs": [
        {
          "internalType": "uint256[]",
          "name": "",
          "type": "uint256[]"
        }
      ],
      "stateMutability": "view",
      "type": "function",
      "constant": true
    },
    {
      "inputs": [
        {
          "internalType": "uint256",
          "name": "_policyId",
          "type": "uint256"
        }
      ],
      "name": "getProcedures",
      "outputs": [
        {
          "components": [
            {
              "internalType": "string",
              "name": "name",
              "type": "string"
            },
            {
              "internalType": "uint256",
              "name": "timestamp",
              "type": "uint256"
            },
            {
              "internalType": "bool",
              "name": "verified",
              "type": "bool"
            },
            {
              "internalType": "address",
              "name": "hospital",
              "type": "address"
            }
          ],
          "internalType": "struct Insurance.Procedure[]",
          "name": "",
          "type": "tuple[]"
        }
      ],
      "stateMutability": "view",
      "type": "function",
      "constant": true
    }
  ],
  "bytecode": "0x60a060405234801561001057600080fd5b5060405162001dbe38038062001dbe833981016040819052610031916100ae565b6001600160a01b03811661008b5760405162461bcd60e51b815260206004820152601460248201527f496e76616c696420444944207265676973747279000000000000000000000000604482015260640160405180910390fd5b6001600160a01b0316608052600080546001600160a01b031916331790556100de565b6000602082840312156100c057600080fd5b81516001600160a01b03811681146100d757600080fd5b9392505050565b608051611cb66200010860003960008181610256015281816107db015261118c0152611cb66000f3fe6080604052600436106101185760003560e01c80636df4b239116100a0578063d3e8948311610064578063d3e8948314610380578063d78f51b9146103b3578063ee57d1e5146103d3578063f08aef1a146103f3578063f851a4401461042057600080fd5b80636df4b239146102b05780637d9aacdb146102d0578063974e527a14610310578063a1bfe3ac14610330578063cad539f21461036057600080fd5b80633d36adc5116100e75780633d36adc5146101c9578063425a69cc146101f75780634ab72aae14610224578063577f9fb114610244578063609b3a961461029057600080fd5b806319ac461414610124578063203411011461015a578063317f11d91461017c5780633b03249c1461019c57600080fd5b3661011f57005b600080fd5b34801561013057600080fd5b5061014461013f3660046115bc565b610440565b60405161015191906115de565b60405180910390f35b34801561016657600080fd5b5061017a610175366004611622565b6104ac565b005b34801561018857600080fd5b5061017a6101973660046115bc565b6105b3565b3480156101a857600080fd5b506101bc6101b7366004611622565b610647565b6040516101519190611673565b3480156101d557600080fd5b506101e96101e4366004611687565b610689565b604051908152602001610151565b34801561020357600080fd5b506101e96102123660046115bc565b60066020526000908152604090205481565b34801561023057600080fd5b506101e961023f366004611754565b6106ba565b34801561025057600080fd5b506102787f000000000000000000000000000000000000000000000000000000000000000081565b6040516001600160a01b039091168152602001610151565b34801561029c57600080fd5b5061017a6102ab3660046117a8565b610993565b3480156102bc57600080fd5b5061017a6102cb3660046115bc565b610c14565b3480156102dc57600080fd5b506103006102eb3660046115bc565b60026020526000908152604090205460ff1681565b6040519015158152602001610151565b34801561031c57600080fd5b5061017a61032b366004611622565b610cd2565b34801561033c57600080fd5b5061035061034b3660046117ef565b610ecb565b6040516101519493929190611857565b34801561036c57600080fd5b5061017a61037b3660046115bc565b610fad565b34801561038c57600080fd5b506103a061039b366004611622565b611020565b604051610151979695949392919061188f565b3480156103bf57600080fd5b50600154610278906001600160a01b031681565b3480156103df57600080fd5b5061017a6103ee3660046117ef565b6110f8565b3480156103ff57600080fd5b5061041361040e366004611622565b6113b5565b60405161015191906118e2565b34801561042c57600080fd5b50600054610278906001600160a01b031681565b6001600160a01b0381166000908152600560209081526040918290208054835181840281018401909452808452606093928301828280156104a057602002820191906000526020600020905b81548152602001906001019080831161048c575b50505050509050919050565b6001546001600160a01b031633146104df5760405162461bcd60e51b81526004016104d690611978565b60405180910390fd5b8060075481106105015760405162461bcd60e51b81526004016104d6906119af565b60008281526003602052604090206002600582015460ff16600281111561052a5761052a61163b565b146105695760405162461bcd60e51b815260206004820152600f60248201526e4e6f2061637469766520636c61696d60881b60448201526064016104d6565b60058101805460ff1916905580546040516001600160a01b039091169084907f22fadfffa9b3978ef60c97c46a0e6c38040d03db462e6cec7e09cff08c0aa41490600090a3505050565b6000546001600160a01b031633146105dd5760405162461bcd60e51b81526004016104d6906119da565b6001600160a01b0381166106255760405162461bcd60e51b815260206004820152600f60248201526e496e76616c6964206164647265737360881b60448201526064016104d6565b600180546001600160a01b0319166001600160a01b0392909216919091179055565b600081600754811061066b5760405162461bcd60e51b81526004016104d6906119af565b60008381526003602052604090206005015460ff1691505b50919050565b600560205281600052604060002081815481106106a557600080fd5b90600052602060002001600091509150505481565b6001546000906001600160a01b031633146106e75760405162461bcd60e51b81526004016104d690611978565b4282116107295760405162461bcd60e51b815260206004820152601060248201526f496e76616c696420656e64206461746560801b60448201526064016104d6565b6000831161076b5760405162461bcd60e51b815260206004820152600f60248201526e496e76616c6964207072656d69756d60881b60448201526064016104d6565b600084116107ac5760405162461bcd60e51b815260206004820152600e60248201526d125b9d985b1a5908185b5bdd5b9d60921b60448201526064016104d6565b60078054600091826107bd83611a1d565b9091555060405163759e9a6960e01b81529091506001600160a01b037f0000000000000000000000000000000000000000000000000000000000000000169063759e9a69906108149033908a908690600401611a36565b600060405180830381600087803b15801561082e57600080fd5b505af1158015610842573d6000803e3d6000fd5b50506040805160e081018252338152602081018990529081018790524260608201526080810186905291505060a0810160008152602001878152506003600083815260200190815260200160002060008201518160000160006101000a8154816001600160a01b0302191690836001600160a01b031602179055506020820151816001015560408201518160020155606082015181600301556080820151816004015560a08201518160050160006101000a81548160ff0219169083600281111561090f5761090f61163b565b021790555060c082015160068201906109289082611aed565b505033600081815260056020908152604080832080546001810182559084529282902090920185905581514281529081018790528493507f7d02b09c49332ca74071d4d7d88d4220ec928f86ec5d8773c6faeae4ca86c5b0910160405180910390a395945050505050565b3360009081526002602052604090205460ff166109fc5760405162461bcd60e51b815260206004820152602160248201527f4f6e6c7920617574686f72697a656420686f73706974616c2063616e2063616c6044820152601b60fa1b60648201526084016104d6565b816007548110610a1e5760405162461bcd60e51b81526004016104d6906119af565b60008381526003602052604090206002600582015460ff166002811115610a4757610a4761163b565b14610a895760405162461bcd60e51b8152602060048201526012602482015271141bdb1a58de481b9bdd0818db185a5b595960721b60448201526064016104d6565b6000835111610ad35760405162461bcd60e51b8152602060048201526016602482015275496e76616c69642070726f636564757265206e616d6560501b60448201526064016104d6565b80600301544210158015610aeb575080600401544211155b610b2f5760405162461bcd60e51b815260206004820152601560248201527413dd5d1cda5919481c1bdb1a58de481c195c9a5bd9605a1b60448201526064016104d6565b600084815260046020908152604080832081516080810183528781524281850152600192810183905233606082015281549283018255908452919092208151919260030201908190610b819082611aed565b5060208201516001820155604080830151600290920180546060909401516001600160a01b031661010002610100600160a81b0319931515939093166001600160a81b0319909416939093179190911790915551339085907f82ab168e833592cc090d05a28130da924c836a7a8977e998a9d2261d68d366dd90610c06908790611bad565b60405180910390a350505050565b6000546001600160a01b03163314610c3e5760405162461bcd60e51b81526004016104d6906119da565b6001600160a01b038116610c865760405162461bcd60e51b815260206004820152600f60248201526e496e76616c6964206164647265737360881b60448201526064016104d6565b6001600160a01b038116600081815260026020526040808220805460ff19166001179055517fd7e42a85fe4ea212d3b1d58e2b28ba4d7f330421f21de574ae622a0a317b91b09190a250565b6001546001600160a01b03163314610cfc5760405162461bcd60e51b81526004016104d690611978565b806007548110610d1e5760405162461bcd60e51b81526004016104d6906119af565b60008281526003602052604090206002600582015460ff166002811115610d4757610d4761163b565b14610d865760405162461bcd60e51b815260206004820152600f60248201526e4e6f2061637469766520636c61696d60881b60448201526064016104d6565b8060010154471015610dd15760405162461bcd60e51b8152602060048201526014602482015273496e73756666696369656e742062616c616e636560601b60448201526064016104d6565b6001818101805460009182905560058401805460ff191690931790925582546040516001600160a01b039091169083908381818185875af1925050503d8060008114610e39576040519150601f19603f3d011682016040523d82523d6000602084013e610e3e565b606091505b5050905080610e815760405162461bcd60e51b815260206004820152600f60248201526e151c985b9cd9995c8819985a5b1959608a1b60448201526064016104d6565b82546040518381526001600160a01b039091169086907f0a0ba32aa9cac8a56ad0b280d9ccbd61cb2c56c3594546886a70f62af5de4bac9060200160405180910390a35050505050565b60046020528160005260406000208181548110610ee757600080fd5b906000526020600020906003020160009150915050806000018054610f0b90611a6a565b80601f0160208091040260200160405190810160405280929190818152602001828054610f3790611a6a565b8015610f845780601f10610f5957610100808354040283529160200191610f84565b820191906000526020600020905b815481529060010190602001808311610f6757829003601f168201915b50505050600183015460029093015491929160ff8116915061010090046001600160a01b031684565b6000546001600160a01b03163314610fd75760405162461bcd60e51b81526004016104d6906119da565b6001600160a01b038116600081815260026020526040808220805460ff19169055517ffdf8ebc9be0954af930a51bc84feb1876ba90f766111827be25b55ff2ba2c4f89190a250565b600360208190526000918252604090912080546001820154600283015493830154600484015460058501546006860180546001600160a01b0390961697949694959394929360ff909216929161107590611a6a565b80601f01602080910402602001604051908101604052809291908181526020018280546110a190611a6a565b80156110ee5780601f106110c3576101008083540402835291602001916110ee565b820191906000526020600020905b8154815290600101906020018083116110d157829003601f168201915b5050505050905087565b81600754811061111a5760405162461bcd60e51b81526004016104d6906119af565b600083815260036020526040902080546001600160a01b031633146111755760405162461bcd60e51b81526020600482015260116024820152702737ba103837b634b1bc903437b63232b960791b60448201526064016104d6565b604051637ec5002b60e11b81526001600160a01b037f0000000000000000000000000000000000000000000000000000000000000000169063fd8a0056906111c4906006850190600401611bc0565b602060405180830381865afa1580156111e1573d6000803e3d6000fd5b505050506040513d601f19601f820116820180604052508101906112059190611c4b565b61123f5760405162461bcd60e51b815260206004820152600b60248201526a125b9d985b1a590811125160aa1b60448201526064016104d6565b6000600582015460ff16600281111561125a5761125a61163b565b1461129b5760405162461bcd60e51b8152602060048201526011602482015270506f6c696379206e6f742061637469766560781b60448201526064016104d6565b6000831180156112af575080600101548311155b6112f25760405162461bcd60e51b8152602060048201526014602482015273125b9d985b1a590818db185a5b48185b5bdd5b9d60621b60448201526064016104d6565b8060030154421015801561130a575080600401544211155b61134e5760405162461bcd60e51b815260206004820152601560248201527413dd5d1cda5919481c1bdb1a58de481c195c9a5bd9605a1b60448201526064016104d6565b60058101805460ff19166002179055336000908152600660205260408120805485929061137c908490611c6d565b9091555050604051838152339085907f783b3244355d13c84746d16cd2f991993e05a69ce1e09a367b48fc1bf558e14a90602001610c06565b60608160075481106113d95760405162461bcd60e51b81526004016104d6906119af565b600083815260036020526040902080546001600160a01b031633148061140957506000546001600160a01b031633145b8061141e57506001546001600160a01b031633145b8061143857503360009081526002602052604090205460ff165b6114735760405162461bcd60e51b815260206004820152600c60248201526b155b985d5d1a1bdc9a5e995960a21b60448201526064016104d6565b600084815260046020908152604080832080548251818502810185019093528083529193909284015b8282101561159357838290600052602060002090600302016040518060800160405290816000820180546114cf90611a6a565b80601f01602080910402602001604051908101604052809291908181526020018280546114fb90611a6a565b80156115485780601f1061151d57610100808354040283529160200191611548565b820191906000526020600020905b81548152906001019060200180831161152b57829003601f168201915b505050918352505060018281015460208084019190915260029093015460ff81161515604084015261010090046001600160a01b03166060909201919091529183529201910161149c565b5050505092505050919050565b80356001600160a01b03811681146115b757600080fd5b919050565b6000602082840312156115ce57600080fd5b6115d7826115a0565b9392505050565b6020808252825182820181905260009190848201906040850190845b81811015611616578351835292840192918401916001016115fa565b50909695505050505050565b60006020828403121561163457600080fd5b5035919050565b634e487b7160e01b600052602160045260246000fd5b6003811061166f57634e487b7160e01b600052602160045260246000fd5b9052565b602081016116818284611651565b92915050565b6000806040838503121561169a57600080fd5b6116a3836115a0565b946020939093013593505050565b634e487b7160e01b600052604160045260246000fd5b600082601f8301126116d857600080fd5b813567ffffffffffffffff808211156116f3576116f36116b1565b604051601f8301601f19908116603f0116810190828211818310171561171b5761171b6116b1565b8160405283815286602085880101111561173457600080fd5b836020870160208301376000602085830101528094505050505092915050565b6000806000806080858703121561176a57600080fd5b843567ffffffffffffffff81111561178157600080fd5b61178d878288016116c7565b97602087013597506040870135966060013595509350505050565b600080604083850312156117bb57600080fd5b82359150602083013567ffffffffffffffff8111156117d957600080fd5b6117e5858286016116c7565b9150509250929050565b6000806040838503121561180257600080fd5b50508035926020909101359150565b6000815180845260005b818110156118375760208185018101518683018201520161181b565b506000602082860101526020601f19601f83011685010191505092915050565b60808152600061186a6080830187611811565b60208301959095525091151560408301526001600160a01b0316606090910152919050565b60018060a01b03881681528660208201528560408201528460608201528360808201526118bf60a0820184611651565b60e060c082015260006118d560e0830184611811565b9998505050505050505050565b60006020808301818452808551808352604092508286019150828160051b87010184880160005b8381101561196a57603f1989840301855281516080815181865261192f82870182611811565b838b0151878c01528984015115158a8801526060938401516001600160a01b0316939096019290925250509386019390860190600101611909565b509098975050505050505050565b6020808252601f908201527f4f6e6c7920696e737572616e636520636f6d70616e792063616e2063616c6c00604082015260600190565b602080825260119082015270125b9d985b1a59081c1bdb1a58de481251607a1b604082015260600190565b60208082526013908201527213db9b1e4818591b5a5b8818d85b8818d85b1b606a1b604082015260600190565b634e487b7160e01b600052601160045260246000fd5b600060018201611a2f57611a2f611a07565b5060010190565b6001600160a01b0384168152606060208201819052600090611a5a90830185611811565b9050826040830152949350505050565b600181811c90821680611a7e57607f821691505b60208210810361068357634e487b7160e01b600052602260045260246000fd5b601f821115611ae857600081815260208120601f850160051c81016020861015611ac55750805b601f850160051c820191505b81811015611ae457828155600101611ad1565b5050505b505050565b815167ffffffffffffffff811115611b0757611b076116b1565b611b1b81611b158454611a6a565b84611a9e565b602080601f831160018114611b505760008415611b385750858301515b600019600386901b1c1916600185901b178555611ae4565b600085815260208120601f198616915b82811015611b7f57888601518255948401946001909101908401611b60565b5085821015611b9d5787850151600019600388901b60f8161c191681555b5050505050600190811b01905550565b6020815260006115d76020830184611811565b6000602080835260008454611bd481611a6a565b80848701526040600180841660008114611bf55760018114611c0f57611c3d565b60ff1985168984015283151560051b890183019550611c3d565b896000528660002060005b85811015611c355781548b8201860152908301908801611c1a565b8a0184019650505b509398975050505050505050565b600060208284031215611c5d57600080fd5b815180151581146115d757600080fd5b8082018082111561168157611681611a0756fea26469706673582212200b475b3bf9354fe54f2489d725a6c06bac3d2add18e336685696a6ab1eb25ecf64736f6c63430008140033",
  "immutableReferences": {
    "341": [
      {
        "length": 32,
        "start": 598
      },
      {
        "length": 32,
        "start": 2011
      },
      {
        "length": 32,
        "start": 4492
      }
    ]
  },
  "source": "// SPDX-License-Identifier: GPL-3.0\npragma solidity 0.8.20;\n\nimport \"./DIDregister.sol\";\n\ncontract Insurance {\n    struct Policy {\n        address holder;\n        uint256 amount;\n        uint256 premium;\n        uint256 startDate;\n        uint256 endDate;\n        PolicyStatus status;\n        string holderDID;\n    }\n\n    struct Procedure {\n        string name;\n        uint256 timestamp;\n        bool verified;\n        address hospital;\n    }\n\n    enum PolicyStatus {\n        Active,\n        Inactive,\n        Claimed\n    }\n\n    address public admin;\n    address public insuranceCompany;\n    mapping(address => bool) public authorizedHospitals;\n    \n    DIDregister public immutable didRegistry;\n    \n    mapping(uint256 => Policy) public policies;\n    mapping(uint256 => Procedure[]) public policyProcedures;\n    mapping(address => uint256[]) public userPolicies;\n    mapping(address => uint256) public claimHistory;\n    \n    uint256 private nextPolicyId;\n\n    event PolicyCreated(address indexed holder, uint256 indexed policyId, uint256 startDate, uint256 endDate);\n    event ClaimMade(uint256 indexed policyId, address indexed holder, uint256 claimAmt);\n    event ClaimAccepted(uint256 indexed policyId, address indexed holder, uint256 claimAmt);\n    event ClaimRejected(uint256 indexed policyId, address indexed holder);\n    event ProcedureRecorded(uint256 indexed policyId, address indexed hospital, string procedureName);\n    event HospitalAuthorized(address indexed hospital);\n    event HospitalDeauthorized(address indexed hospital);\n\n    modifier onlyAdmin() {\n        require(msg.sender == admin, \"Only admin can call\");\n        _;\n    }\n\n    modifier onlyInsuranceCompany() {\n        require(msg.sender == insuranceCompany, \"Only insurance company can call\");\n        _;\n    }\n\n    modifier onlyHospital() {\n        require(authorizedHospitals[msg.sender], \"Only authorized hospital can call\");\n        _;\n    }\n\n    modifier validPolicy(uint256 _policyId) {\n        require(_policyId < nextPolicyId, \"Invalid policy ID\");\n        _;\n    }\n\n    constructor(address _didRegistryAddress) {\n        require(_didRegistryAddress != address(0), \"Invalid DID registry\");\n        didRegistry = DIDregister(_didRegistryAddress);\n        admin = msg.sender;\n    }\n\n    function setInsuranceCompany(address _insuranceCompany) external onlyAdmin {\n        require(_insuranceCompany != address(0), \"Invalid address\");\n        insuranceCompany = _insuranceCompany;\n    }\n\n    function authorizeHospital(address _hospital) external onlyAdmin {\n        require(_hospital != address(0), \"Invalid address\");\n        authorizedHospitals[_hospital] = true;\n        emit HospitalAuthorized(_hospital);\n    }\n\n    function deauthorizeHospital(address _hospital) external onlyAdmin {\n        authorizedHospitals[_hospital] = false;\n        emit HospitalDeauthorized(_hospital);\n    }\n\n    function createPolicy(\n        string memory _did,\n        uint256 _amount,\n        uint256 _premium,\n        uint256 _endDate\n    ) external onlyInsuranceCompany returns (uint256) {\n        require(_endDate > block.timestamp, \"Invalid end date\");\n        require(_premium > 0, \"Invalid premium\");\n        require(_amount > 0, \"Invalid amount\");\n        \n        uint256 policyId = nextPolicyId++;\n        \n        didRegistry.registerDID(msg.sender, _did, policyId);\n        \n        policies[policyId] = Policy({\n            holder: msg.sender,\n            amount: _amount,\n            premium: _premium,\n            startDate: block.timestamp,\n            endDate: _endDate,\n            status: PolicyStatus.Active,\n            holderDID: _did\n        });\n        \n        userPolicies[msg.sender].push(policyId);\n        \n        emit PolicyCreated(msg.sender, policyId, block.timestamp, _endDate);\n        return policyId;\n    }\n\n    function makeClaim(uint256 _policyId, uint256 _claimAmt) external validPolicy(_policyId) {\n        Policy storage policy = policies[_policyId];\n        require(msg.sender == policy.holder, \"Not policy holder\");\n        require(didRegistry.verifyDID(policy.holderDID), \"Invalid DID\");\n        require(policy.status == PolicyStatus.Active, \"Policy not active\");\n        require(_claimAmt > 0 && _claimAmt <= policy.amount, \"Invalid claim amount\");\n        require(\n            block.timestamp >= policy.startDate && \n            block.timestamp <= policy.endDate, \n            \"Outside policy period\"\n        );\n\n        policy.status = PolicyStatus.Claimed;\n        claimHistory[msg.sender] += _claimAmt;\n\n        emit ClaimMade(_policyId, msg.sender, _claimAmt);\n    }\n\n    function recordProcedure(\n        uint256 _policyId,\n        string memory _name\n    ) external onlyHospital validPolicy(_policyId) {\n        Policy storage policy = policies[_policyId];\n        require(policy.status == PolicyStatus.Claimed, \"Policy not claimed\");\n        require(bytes(_name).length > 0, \"Invalid procedure name\");\n        require(\n            block.timestamp >= policy.startDate && \n            block.timestamp <= policy.endDate, \n            \"Outside policy period\"\n        );\n\n        policyProcedures[_policyId].push(Procedure({\n            name: _name,\n            timestamp: block.timestamp,\n            verified: true,\n            hospital: msg.sender\n        }));\n\n        emit ProcedureRecorded(_policyId, msg.sender, _name);\n    }\n\n    function acceptClaim(uint256 _policyId) external onlyInsuranceCompany validPolicy(_policyId) {\n        Policy storage policy = policies[_policyId];\n        require(policy.status == PolicyStatus.Claimed, \"No active claim\");\n        require(address(this).balance >= policy.amount, \"Insufficient balance\");\n\n        uint256 claimAmount = policy.amount;\n        policy.amount = 0;\n        policy.status = PolicyStatus.Inactive;\n\n        (bool sent, ) = policy.holder.call{value: claimAmount}(\"\");\n        require(sent, \"Transfer failed\");\n\n        emit ClaimAccepted(_policyId, policy.holder, claimAmount);\n    }\n\n    function rejectClaim(uint256 _policyId) external onlyInsuranceCompany validPolicy(_policyId) {\n        Policy storage policy = policies[_policyId];\n        require(policy.status == PolicyStatus.Claimed, \"No active claim\");\n\n        policy.status = PolicyStatus.Active;\n        \n        emit ClaimRejected(_policyId, policy.holder);\n    }\n\n    function getPolicyStatus(uint256 _policyId) external view validPolicy(_policyId) returns (PolicyStatus) {\n        return policies[_policyId].status;\n    }\n\n    function getUserPolicies(address _user) external view returns (uint256[] memory) {\n        return userPolicies[_user];\n    }\n\n    function getProcedures(uint256 _policyId) external view validPolicy(_policyId) returns (Procedure[] memory) {\n        Policy storage policy = policies[_policyId];\n        require(\n            msg.sender == policy.holder || \n            msg.sender == admin || \n            msg.sender == insuranceCompany || \n            authorizedHospitals[msg.sender],\n            \"Unauthorized\"\n        );\n        return policyProcedures[_policyId];\n    }\n\n    receive() external payable {}\n}",
  "sourcePath": "/home/astr00/Downloads/Blockchain_secure_insurance-main/Insurance_Project/contracts/Insurance.sol",
  "compiler": {
    "name": "solc",
    "version": "0.8.20+commit.a1b79de6.Emscripten.clang"
  },
  "schemaVersion": "3.4.16",
  "updatedAt": "2025-02-16T11:40:08.165Z",
  "networkType": "ethereum",
  "devdoc": {
    "kind": "dev",
    "methods": {},
    "version": 1
  },
  "userdoc": {
    "kind": "user",
    "methods": {},
    "version": 1
  }
}